S010000041546D65676138412E737265636C
S113000026C02DC02CC02BC02AC029C028C027C0A0
S113001026C025C024C023C022C021C020C01FC0C8
S11300201EC01DC01CC034C022C022C023C024C0B6
S113003025C026C027C028C029C045C033C033C04E
S113004034C035C036C037C038C039C03AC01124B6
S11300501FBECFE5D4E0DEBFCDBF38D07DC0D0CF4A
S11300608A309105B8F4FC01ED5EFF4F099418BA8B
S11300708CE188BB84ED88BB88E488BB8EE988BBAF
S113008086E888BB8AE688BB86EC88BB8EEC88BB96
S113009082E688BB08958A309105B8F4FC01E35EDA
S11300A0FF4F099415BA8CE185BB84ED85BB88E4C8
S11300B085BB8EE985BB86E885BB8AE685BB86EC75
S11300C085BB8EEC85BB82E685BB08958FEF87BB2D
S11300D084BB0F2EFAE0EF2EF12CF02D2FEF83EDE1
S11300E090E3215080409040E1F700C00000219649
S11300F0CE01B7010AD08B01B3DFC801CCDFC33610
S1130100D10564F3C0E0D0E0E9CF97FB072E16F4E5
S1130110009406D077FD08D00BD007FC05D03EF440
S1130120909581959F4F0895709561957F4F08959F
S1130130AA1BBB1B51E107C0AA1FBB1FA617B70709
S113014010F0A61BB70B881F991F5A95A9F7809525
S10F01509095BC01CD010895F894FFCFF8
S9030000FC
