S010000041546D65676138412E737265636C
S113000012C024C023C022C021C020C01FC01EC0F3
S11300101DC01CC01BC01AC019C018C017C016C010
S113002015C014C013C011241FBECFE5D4E0DEBF39
S1130030CDBF10E0A0E6B0E0E8E3F1E002C0059037
S11300400D92A036B107D9F74BD074C0D9CF8FB970
S1130050779BFECF0895CF93C82F88EFF8DF8C2FBE
S1130060807FF5DF8C2F8295807FF1DF8FE191E037
S11300700197F1F700C00000CF910895CF93C82FE6
S11300808AEFE5DF8C2F807FE2DF8C2F8295807FE3
S1130090DEDF8FE191E00197F1F700C00000CF911E
S11300A0089581E0D8DF8AE08A95F1F700C00895C9
S11300B0C0988FE99FE00197F1F700C00000C09A53
S11300C095E39A95F1F7000080E3C5DF8CE0C3DF88
S11300D0E8DF85E38A95F1F7000086E0BCDF089548
S11300E08FEF87BB8DE58DB981E08EB9E1DFD9DF74
S11300F080E8B1DF10E01BC0812FC0DF8C2FBEDF92
S11301008FE39CE90197F1F700C000002196C1300C
S113011091E0D90789F72FEF81EE94E021508040D8
S11301209040E1F700C000001F5F193F01F3C0E0F9
S10B0130D0E0E2CFF894FFCF08
S9030000FC
